:020000040800F2
:1000000000000120712D0008E1200008E320000815
:10001000E5200008E7200008E920000800000000B3
:10002000000000000000000000000000EB200008BD
:10003000ED20000800000000EF200008F12000087B
:10004000C12D0008C12D0008C12D0008C12D0008D8
:10005000C12D0008C12D0008C12D0008C12D0008C8
:10006000C12D0008C12D0008C12D0008C12D0008B8
:10007000C12D0008C12D0008C12D0008C12D0008A8
:10008000C12D0008C12D0008C12D0008000000008E
:10009000000000000000000000000000C12D00086A
:1000A000C12D0008C12D0008C12D0008C12D000878
:1000B000C12D0008C12D0008C12D0008C12D000868
:1000C000C12D0008C12D0008C12D0008C12D000858
:1000D000C12D0008C12D0008C12D0008000000003E
:1000E000C12D0008C12D0008C12D0008000000002E
:1000F000000000000000000000000000C12D00080A
:1001000000000000C12D0008C12D0008C12D00080D
:1001100000000000000000000000000000000000DF
:10012000C12D0008C12D0008C12D0008C12D0008F7
:10013000C12D0008000000000000000000000000C9
:10014000000000000000000000000000C12D0008B9
:10015000C12D0008C12D0008C12D0008C12D0008C7
:10016000C12D0008C12D00080000000000000000A3
:10017000000000000000000000000000000000007F
:1001800000000000C12D0008000000000000000079
:04019000C12D000875
:1001A0000348044B834202D0034B03B11847704706
:1001B0007000002070000020000000000548064983
:1001C000091A891001EBD171491002D0034B03B118
:1001D00018477047700000207000002000000000E9
:1001E00010B5064C237843B9FFF7DAFF044B13B17F
:1001F0000448AFF300800123237010BD700000207D
:1002000000000000C42D000808B5044B1BB10449D0
:100210000448AFF30080BDE80840CFE700000000CD
:1002200074000020C42D0008014B1868704700BFFF
:100230000000002070B50D4E0D4D761BB61006D097
:100240000024013455F8043B9847A642F9D1094EE1
:10025000094D761B02F0B6FDB61006D0002401341D
:1002600055F8043B9847A642F9D170BD40320008CA
:10027000403200084432000840320008F0B48607DB
:1002800046D0541E002A3CD0CAB2034602E014F104
:10029000FF3436D303F8012B9D07F8D1032C29D95D
:1002A000CDB245EA05250F2C45EA054533D9A4F121
:1002B0001006360903F1200707EB061703F11002B9
:1002C00042E9045542E902551032BA42F8D1721C93
:1002D00014F00C0F03EB021204F00F0613D0331FBF
:1002E00023F003030433134442F8045B9342FBD12D
:1002F00006F003042CB1C9B21C4403F8011B9C4254
:10030000FBD1F0BC704734461346002CF3D1F8E71C
:1003100014460346C2E71A462646E0E70EB410B577
:10032000044683B008B1836963B106A8034601900F
:10033000059AA168204600F025FA03B0BDE81040F8
:1003400003B0704700F006F9EFE700BF0FB410B537
:100350000B4B1C6882B00CB1A36963B105A80346BE
:100360000190049AA168204600F00CFA02B0BDE8A2
:10037000104004B07047204600F0ECF8EEE700BFF4
:100380000000002000207047014900F029B900BF9B
:10039000151200080020704770B54A1E682505FB3D
:1003A00002F50E4605F1740100F044F9044640B12F
:1003B00000210C30666005F168022160A060FFF743
:1003C0005DFF204670BD00BF1E4B70B51D68AB6958
:1003D000064643B34835D5E90134013B05D51EE057
:1003E000013B5A1C04F1680419D0B4F90C20002A0E
:1003F000F6D10025144B6566C4E90055A560C4E933
:100400000455A5612946E360082204F15C00FFF76A
:1004100035FFC4E90D55C4E91255204670BD2C685E
:100420002CB12546D7E7284600F010F8D2E7042182
:100430003046FFF7B1FF044628600028F1D10C23B5
:100440003360EAE7DC2D00080100FFFF2DE9F84FDB
:10045000334B34491A68816290424FF00003C0E97F
:100460001233036504BF012383610546FFF7ACFF28
:1004700068602846FFF7A8FFA8602846FFF7A4FF9A
:100480006E68E86000240423F3607466C6E90044E3
:10049000B460C6E90444B461214606F15C00082258
:1004A000FFF7ECFEDFF888B0AF68DFF888A0DFF870
:1004B0008890DFF888801C4BC6F83080C6E9086B4E
:1004C000C6E90AA92146FB6008227C66C7E9004408
:1004D000BC60C7E90444BC6107F15C00FFF7CEFED5
:1004E000EE68124BC7F83080C7E9087BC7E90AA954
:1004F0002146F3607466C6E90044B460C6E904446A
:10050000B46106F15C000822FFF7B8FE0123C6E9DA
:10051000086BC6E90AA9C6F83080AB61BDE8F88F60
:10052000DC2D000889030008090001001200020008
:10053000490E0008710E0008B10E0008D10E000827
:10054000024B0349186800F04BB800BFDC2D0008CF
:1005500015120008836903B978E77047704700BF38
:10056000704700BF704700BF704700BF024B034990
:10057000186800F00FB800BF0000002085030008D5
:10058000024B0349186800F005B800BF00000020C6
:10059000950300082DE9F04110F148071BD088466B
:1005A0000026D7E90154013D0FD4A389012B05F1A1
:1005B000FF3506D9B4F90E300133204601D0C047CB
:1005C00006436B1C04F16804EFD13F68002FE8D1AB
:1005D0003046BDE8F0813E463046BDE8F08100BFC0
:1005E0002DE9F84310F148071FD0884606464FF022
:1005F0000009D7E90154013D11D4A389012B05F16C
:10060000FF3508D9B4F90E3001332146304602D007
:10061000C04749EA00096B1C04F16804EDD13F684A
:10062000002FE6D14846BDE8F883B9464846BDE804
:10063000F88300BFF8B5CD1C25F0030508350C2D57
:1006400038BF0C25002D064633DBA94231D82A4F8E
:1006500001F088F93A6852B113685B1B04D43FE09B
:1006600023685B1B29D522465468002CF8D1796891
:1006700000293BD02946304600F0D4FB431C28D04B
:10068000C41C24F00304A04205D0211A304600F017
:10069000C9FB01301DD02560304601F065F904F139
:1006A0000B0020F00700231DC21A01D01B1AA35013
:1006B000F8BD0C2232600020F8BD0B2B05D8A242F9
:1006C000636811D05360E7E7144623601C4425603B
:1006D000E2E70C233046336001F046F90020F8BD14
:1006E0000B2BF1D8536814463B60D5E7304600F039
:1006F00099FB7860BEE700BF8C0000209368013B47
:10070000002B936011DA10B49469A34209DB0A2923
:1007100007D01368581C1060197008465DF8044B28
:1007200070475DF8044B00F0D7BB1368581C10608D
:1007300019700846704700BF9BB1F8B513440F46C7
:1007400006465D1E541E01E0AC4208D03A4614F83D
:10075000011F3046FFF7D2FF431CF5D1F8BD002042
:10076000F8BD0020704700BF936810B5144613B958
:100770005360184610BD00F08FFD0023C4E901331B
:1007800010BD00BF2DE9F04F9FB08B4690461C4630
:10079000039018B18369002B00F0B780A24B9B45F2
:1007A00000F0B980A14B9B4500F0C780A04B9B4552
:1007B00004BF039BD3F80CB0BBF80C30180740F112
:1007C000B280DBF81030002B00F0AD8030238DF8C4
:1007D000323098F800300594002120220B918DF8DA
:1007E0003120944E0127002B00F08780252B00F04C
:1007F0001581454603E0252B00F0A38025466B7844
:100800006C1C002BF7D1B4EB080A76D04246534655
:1008100059460398FFF790FF01306ED00B9B6A7822
:1008200053440B93002A68D000234FF0FF32013469
:100830000693CDE908338DF85B301C93079205E0F1
:10084000069A07FA03F313432C460693254605221E
:1008500015F8011B304600F033FFAA46831B002821
:10086000EED1069BD90644BF20228DF85B2021786B
:100870001A0744BF2B228DF85B202A2966D1059ADE
:100880001168043200290592C0F29D8009916178B7
:10089000A51C2E2973D0684C0322204600F010FFBF
:1008A000002800F08680001B069B402404FA00F01C
:1008B0000343069305F10108297860488DF830104C
:1008C000062200F0FDFE002800F083805C4B002B28
:1008D00072D005AB00935A465A4B039806A9AFF362
:1008E00000808146B9F1FF3F07D00B9B4B440B932F
:1008F00098F80030002B7FF479AFBBF80C305B0622
:1009000018D40B981FB0BDE8F08FFFF723FE464BBD
:100910009B457FF447AF039BD3F804B0BBF80C3082
:1009200018073FF54EAF5946039800F04BFB0028DF
:100930003FF44CAF4FF0FF30E4E7039BD3F808B02F
:100940003AE7B4EB080A3FF46FAF5FE7A1F130027A
:10095000092A88BFA2469CD8099B01E02C46013594
:10096000297803EB830302EB4303A1F13002092A48
:10097000AA46F3D92E2904F1020509938BD19AF8DE
:1009800001102A292FD1059B9AF802101A680792A4
:100990000433002A05930AF103050AF1020338DB48
:1009A000254C032220469A4600F08AFE00287FF458
:1009B0007AAFA84655467FE7059B073323F0070328
:1009C0000833059391E7494243F0020309910693E6
:1009D0005DE705AB00935A461A4B039806A900F051
:1009E000D5F881467EE7A1F130020023092A07935A
:1009F00001D915E05546697803EB830302EB430305
:100A0000A1F13002092A05F1010AF3D90235079351
:100A100041E74FF0FF329A4607923CE7444603E72E
:100A2000AA46013537E700BF202E0008002E000837
:100A3000E02D0008FC3100080432000808320008EC
:100A4000000000003907000810B4044C13460A46A1
:100A5000014620685DF8044BFFF794BE00000020BB
:100A60002DE9F0470C4691460A698968DDF8208037
:100A70008A42B8BF0A46C9F8002094F843100646D7
:100A80001F4611B10132C9F80020236899065CD5D0
:100A9000D9F800200232C9F80020236813F0060FAD
:100AA00019461DD1E1688A1A002AD8BF194617DDF8
:100AB00004F1190A002505E0E368D9F800209B1A23
:100AC000AB420CDD0123524639463046C047013067
:100AD00005F10105F0D14FF0FF30BDE8F087216846
:100AE00094F84330003318BF01238A060AD5E11871
:100AF0005A1C302081F84300224494F8451082F8B3
:100B00004310023304F1430239463046C0470130F6
:100B1000E1D02368A268216903F00603042B1DD0ED
:100B20008A4226DD4FF00009521A91441A340025FA
:100B300001E04D451DDA0123224639463046C047C3
:100B4000013005F10105F4D1C5E713F0060F13D00C
:100B500094F84330003318BF0123D3E7D9F80000DD
:100B6000E3688A42A3EB000323EAE379DCDC002B91
:100B7000DCDC0020BDE8F087E168D9F800208A1AA3
:100B8000002AD8BF194693DCAAE700BF2DE9F0433D
:100B90000C46097E85B06E29064617460C98984685
:100BA00004F1430E6DD039D9732900F0F68044D991
:100BB000752900F00481782940F01181782322689A
:100BC000DFF858C284F845300168150651F8043B37
:100BD000016040F1A180D10744BF42F020022260B1
:100BE000002B00F093801022002184F843106068ED
:100BF000A0600028C0F2C880216821F004012160B3
:100C0000002B40F0A380002840F0C0807546082AE1
:100C100000F0AC80AEEB0503236141E0632900F0F6
:100C2000E5801AD8002938D0582940F0D88084F8B7
:100C300045102268DFF8E8C1C6E76F2900F0BF80E1
:100C4000702940F0CC802268DFF8D0C142F0200249
:100C50007823226084F84530B6E7642902D06929F8
:100C600040F0BD8022680368110603F1040557D5E2
:100C7000196805600B46002959DBDFF8A4C10A2278
:100C8000B5E70368226861691D1D056015061B68CC
:100C900002D4500600F1BD8019600023754623611F
:100CA000CDF800803B4603AA21463046FFF7D8FE28
:100CB000013020D02A46236939463046C0470130EA
:100CC00019D022680398E368920719D51A1A002AE6
:100CD00016DD04F11909002504E0E36803981A1AE7
:100CE000AA420DDD01234A4639463046C04701304D
:100CF00005F10105F1D14FF0FF3005B0BDE8F083FB
:100D00009842B8BF184605B0BDE8F083226822F0CB
:100D100020022260102267E7500648BF9BB25AE7C4
:100D20005106A5D5B3F9003005601946A3E76168FF
:100D3000A1602D200029C3F1000384F8430002DBE9
:100D400022F004022260DFF8D8C00A22754600E0D3
:100D50000B46B3FBF2F102FB113093421CF800008A
:100D600005F8010DF4D2082A7FF454AF2368DB079D
:100D70007FF550AF626823699A423FF74BAF30234B
:100D800005F8013C013D45E7002BDFD19CF8003020
:100D900084F8423004F1420539E703686268191D9E
:100DA00001601D680021284600F08AFC002832D02E
:100DB000401B60602061002384F8433070E72268A4
:100DC000036812F0800F03F104051AD01B68056058
:100DD0006F290CBF08220A22DFF844C004E7012370
:100DE00084F84210236104F14205E4E703681A68BD
:100DF000191D0123016004F1420584F8422023619A
:100E0000D9E712F0400F0DBF1B6805601B88056015
:100E1000DEE7198041E76068CCE700BF24320008B4
:100E20001032000838B5074C0023054608462360F9
:100E300001F046FF431C00D038BD2368002BFBD0D7
:100E40002B6038BDE400002010B50C46B1F90E103F
:100E500000F008FE002803DB636D0344636510BDEA
:100E6000A38923F48053A38110BD00BF00207047E5
:100E70002DE9F0411646B1F90C201F46D3050C466A
:100E80000546B1F90E1009D422F48052A2813B46E6
:100E900032462846BDE8F04100F07EB80022022329
:100EA00000F07EFBB4F90C20B4F90E10ECE700BFA3
:100EB00010B50C46B1F90E1000F072FBA389421C6C
:100EC0000EBF23F4805343F480536065A38110BDAB
:100ED000B1F90E1000F0F6B8F8B50D461446064606
:100EE00008B1836943B3254B9C422AD0244B9C42D2
:100EF00029D0244B9C4208BFF468A389A269A26050
:100F00001A0722D5236903B322686169D31AEDB2A7
:100F100099422F4629DD0133A168501C0139A16097
:100F20002060157062699A4216D0A389DB0701D54B
:100F30000A2D11D03846F8BDFFF70CFB0F4B9C4231
:100F4000D4D17468D9E7B468D7E72146304600F0B9
:100F500039F838B92369D7E72146304600F05AF905
:100F60000028E7D04FF0FF37E4E72146304600F095
:100F700051F90028F6D122680123CDE7202E000880
:100F8000002E0008E02D0008024B0A4601461868B2
:100F9000FFF7A2BF0000002070B50D46084C1146B7
:100FA00006461A4628460023236001F0B7FE431C7C
:100FB00000D070BD2368002BFBD0336070BD00BF34
:100FC000E40000203B4B70B51D6806460C460DB191
:100FD000AB69DBB1384B9C421ED0384B9C424AD0A7
:100FE000374B9C4208BFEC68B4F90C2093B2190748
:100FF00018D5206908B313F001022CD063690022D0
:101000005B42A361A26060B3002070BD2846FFF779
:10101000A1FA294B9C42E0D16C68B4F90C2093B240
:101020001907E6D4DD063CD5580726D4206942F0DE
:101030000803A3819BB20028DDD103F42072B2F52E
:10104000007FD8D03046214600F0EEFAA38920690F
:1010500013F00102D2D1990758BF6269A26000283B
:10106000D2D1B4F90C301A06CFD543F04003A38196
:101070004FF0FF3070BDAC68B6E7616B51B104F161
:101080004403994204D0304600F070FCB4F90C20BF
:101090000023636300232069636022F02402206040
:1010A000C5E742F04002092333604FF0FF30A281D0
:1010B00070BD00BF00000020202E0008002E000898
:1010C000E02D000838B5074C00230546084623608C
:1010D00001F042FE431C00D038BD2368002BFBD03A
:1010E0002B6038BDE40000208B891A072DE9F04100
:1010F0000C46804641D44A68002A59DDE66A002E33
:1011000053D00022D8F80050216AC8F8002013F408
:10111000805251D101234046B047431C5FD0A38980
:10112000E66A216A5F0705D56268636B801A0BB1B6
:10113000236CC01A024600234046B047461C45D1E6
:10114000D8F80030B4F90C20002B55D01D2B01D05D
:10115000162B5AD123690022C4E90032616BC8F80A
:10116000005011B304F14403994202D0404600F00C
:10117000FDFB00206063BDE8F0810E69AEB10D6833
:101180000E6099070CBF63690023AD1BA3600AE0E2
:101190002B463246A76A216A4046B8470028A5EB8D
:1011A000000506440ADD002DF2DC0020BDE8F081D8
:1011B0000A6C002AA2DCF8E7606DB3E7A38943F06C
:1011C0004003A3814FF0FF30BDE8F0812269A3897D
:1011D000226000226260DA04C0D56065BEE7D8F8FC
:1011E0000030002B9BD01D2B0CD0162B0AD0A389CE
:1011F00043F04003A381D9E72169C4E90013D30474
:10120000ACD5EAE7C8F80050CFE742F04002A2812F
:10121000CCE700BF0B6923B310B5044682B008B118
:101220008369BBB1104B994212D0104B994216D032
:101230000F4B994208BFE168B1F90C302BB1204641
:1012400002B0BDE81040FFF74FBF002002B010BD54
:101250006168F1E70191FFF77DF90199E2E7A16883
:10126000EAE70020704700BF202E0008002E00088B
:10127000E02D000820B1054B01461868FFF7CABFF2
:10128000034B04491868FFF7ABB900BF000000200A
:10129000DC2D0008151200089368002B00F0028175
:1012A0002DE9F04FB1F90C309BB20C46190783B011
:1012B0008246904635D522699AB313F00202D8F8D7
:1012C00000603DD00027D4F828B0D4F820C0DFF863
:1012D000CC923D464D452B463A4628BF4B4661468B
:1012E0005046D5B1D847002840F3D280D8F808300E
:1012F0001B1A07442D1AC8F80830002B00F0B780DD
:10130000D4F820C0D4F828B04D452B463A4628BF23
:101310004B4661465046002DE4D1D6E900750836AB
:10132000D8E721465046FFF74DFE002840F03081B7
:10133000B4F90C30D8F800609BB213F00202C1D1AE
:1013400013F0010940F0B080A76820684D46002DD9
:1013500054D09A0540F1BC80AF42BB4600F2E78012
:1013600013F4906F2FD0D4E9041707EB4707A0EBD5
:10137000010B07EBD777681C7F105844B8423A46F8
:1013800084BF07463A465B0540F1E9801146504666
:10139000FFF750F9002800F0F5805A4621690190C6
:1013A00000F0DEF9A289019B22F4906242F08002F3
:1013B000A281A7EB0B0203EB0B00676123612060A6
:1013C000A2602F46AB465A46494600F063FAA2682F
:1013D0002368D21B5B442F46A26023600025D8F807
:1013E0000830DB1BB944C8F80830002B3FD0B4F9F3
:1013F0000C30A76820689BB2002DAAD1D6E90095D1
:101400000836A4E70BF1080353E902679B4608334B
:10141000002FF9D03A460A21304600F051F9002851
:1014200053D00130A0EB06094B46D4E904122068E2
:10143000BB4228BF3B46884203D9A5681544AB424E
:1014400019DC9A427DDC1346A56A216A3246504671
:10145000A847051E1CDDB9EB05096BD00120D8F8A3
:1014600008305B1B2E447F1BC8F8083013BB0020DC
:1014700003B0BDE8F08F31462A4600F00BFA23682E
:101480002B44236021465046FFF7C4FE0028E2D0DB
:10149000B4F90C3043F040034FF0FF30A38103B0A8
:1014A000BDE8F08F0020704733469146104617463E
:1014B0004E469B46002FA5D00028B5D13A460A21BA
:1014C000304600F0FDF80028ABD17B1C9946ACE714
:1014D0002369834215D36169A94212D82E4BA76AAA
:1014E0009D4294BF2B466FF000434A4693FBF1F3B5
:1014F000504601FB03F3216AB847071EC8DDED1B08
:101500006DE7AF4228BF2F463A46494600F0C2F980
:10151000A3682268DB1B3A44A3602260002BEED153
:1015200021465046FFF776FE0028E8D0B0E72F4668
:10153000AB4648E721465046FFF76CFE00288ED0A8
:10154000A6E71A463146019300F0A4F9019BA16871
:101550002268C91A1A44A16022601D467BE75046E2
:1015600000F05AFA034600287FF423AF2169504661
:1015700000F0FCF9B4F90C300C2223F08003CAF817
:10158000002087E70C23CAF80030B4F90C3081E75B
:101590004FF0FF306CE700BFFEFFFF7F00FCFF7FD6
:1015A00070B50D46084C114606461A4628460023DB
:1015B000236001F0DBFB431C00D070BD2368002BCF
:1015C000FBD0336070BD00BFE400002070B50C4656
:1015D000B1F90E10002996B016461D4613DB6A4677
:1015E00000F056FA00280EDB019A02F47042A2F5D0
:1015F0000052B2FA82F252094FF4806300202A604E
:10160000336016B070BDA38900221B062A6004D582
:1016100040230020336016B070BD4FF4806300207B
:10162000336016B070BD00BF8A8992070B4606D59D
:1016300001F1470201211A60C3E90421704770B526
:1016400082B001AB6A460C460646FFF7BFFF009921
:1016500005463046FEF7EEFFB4F90C3070B116497E
:10166000B162019A0099206043F08003A381C4E92C
:1016700004018AB92B43A38102B070BD9A05FBD443
:1016800023F0030304F1470243F002030121A38185
:101690002260C4E90421EFE73046B4F90E1000F0EF
:1016A0000BFA10B9B4F90C30E4E7A38923F0030373
:1016B00043F001031BB2DDE78903000800000000CE
:1016C00001F0FF01102A2BDB10F0070F08D010F8F3
:1016D000013B013A8B422DD010F0070F42B3F6D1F7
:1016E000F0B441EA012141EA014122F007047FF010
:1016F00000070023F0E80256083C85EA010586EA67
:10170000010685FA47F5A3FA87F586FA47F6A5FAA2
:1017100087F68EB9EED1F0BC01F0FF0102F00702AE
:1017200032B110F8013B013A83EA010313B1F8D159
:101730000020704701387047002D06BF354603383A
:10174000073815F0010F07D1013015F4807F02BF73
:10175000013015F4C03F0130F0BC0138704700BFC4
:10176000844641EA000313F003036DD1403A41D3AC
:1017700051F8043B40F8043B51F8043B40F8043B6B
:1017800051F8043B40F8043B51F8043B40F8043B5B
:1017900051F8043B40F8043B51F8043B40F8043B4B
:1017A00051F8043B40F8043B51F8043B40F8043B3B
:1017B00051F8043B40F8043B51F8043B40F8043B2B
:1017C00051F8043B40F8043B51F8043B40F8043B1B
:1017D00051F8043B40F8043B51F8043B40F8043B0B
:1017E00051F8043B40F8043B51F8043B40F8043BFB
:1017F000403ABDD2303211D351F8043B40F8043B9B
:1018000051F8043B40F8043B51F8043B40F8043BDA
:1018100051F8043B40F8043B103AEDD20C3205D3AA
:1018200051F8043B40F8043B043AF9D2043208D0A2
:10183000D2071CBF11F8013B00F8013B01D30B8814
:1018400003806046704700BF082A13D38B078DD0F2
:1018500010F003038AD0C3F10403D21ADB071CBFC4
:1018600011F8013B00F8013B80D331F8023B20F82E
:10187000023B7BE7043AD9D3013A11F8013B00F867
:10188000013BF9D20B7803704B7843708B788370EF
:10189000604670478842F0B40DD98B1883420AD94C
:1018A000841832B1224613F8014D02F8014D9942D5
:1018B000F9D1F0BC70470F2A0ED80346541E002AF7
:1018C000F7D001340C44013B11F8012B03F8012F30
:1018D000A142F9D1F0BC704740EA01039B073BD11C
:1018E000A2F110073F0901F1200606EB071601F1EE
:1018F000100300F1100453F8105C44F8105C53F826
:101900000C5C44F80C5C53F8085C44F8085C53F831
:10191000045C44F8045C1033B34204F11004EAD1CF
:101920007B1C1B0112F00C0F194402F00F0503443D
:1019300015D0043DAD0803EB850C1C1F0E4656F870
:10194000047B44F8047F6445F9D10135AD002B4494
:10195000294402F00302B1E7541E0346B1E72A46C8
:10196000ACE700BF704700BF704700BF00293CD004
:1019700038B551F8043C0C1F002BB8BFE4180546DD
:10198000FFF7F0FF234B1A682AB1A2420DD9216854
:101990006018824223D0626028461C60BDE838404F
:1019A000FFF7E2BFA34203D81A465368002BF9D1D0
:1019B00011685018A04219D024D8216860188342B9
:1019C00006D0636054602846BDE83840FFF7CCBFBE
:1019D000D3E900030144636021605460F3E7D2E976
:1019E0000002014462602160D6E77047206801442C
:1019F000501883421160E6D1D3E9000301445360DB
:101A00001160E0E70C232B602846BDE83840FFF763
:101A1000ABBF00BF8C00002009B3F8B51446CAB1B3
:101A200006460D4600F05AF8A04202D32F4638462B
:101A3000F8BD21463046FEF7FDFD07460028F6D0EA
:101A400022462946FFF78CFE30462946FFF78EFFD7
:101A50003846F8BD2746FFF789FF3846F8BD1146DE
:101A6000FEF7E8BD70B50D46084C114606461A460D
:101A700028460023236001F043F9431C00D070BDC9
:101A80002368002BFBD0336070BD00BFE400002052
:101A900038B50B46074C054611461846002323600F
:101AA00001F05DF9431C00D038BD2368002BFBD04A
:101AB0002B6038BDE400002038B5074C00230546F4
:101AC0000846236001F050F9431C00D038BD23685C
:101AD000002BFBD02B6038BDE400002051F8043C03
:101AE000181F002BBCBF0B58C018704753B94AB918
:101AF000002908BF00281CBF4FF0FF314FF0FF3016
:101B000000F074B9ADF1080C6DE904CE00F006F8F0
:101B1000DDF804E0DDE9022304B070472DE9F04769
:101B2000089E04468846002B40F085808A42154670
:101B300048D9B2FA82F24AB1C2F1200701FA02F39F
:101B400020FA07F7954047EA030894404FEA154EFC
:101B5000230CB8FBFEF71FFA85FC0EFB178843EA3F
:101B6000084307FB0CF1994209D9EB1807F1FF3044
:101B700080F0E380994240F2E080023F2B445B1A00
:101B8000A4B2B3FBFEF00EFB103344EA034400FBA7
:101B90000CFCA44509D92C1900F1FF3380F0CB804F
:101BA000A44540F2C88002382C4440EA0740A4EB28
:101BB0000C0400271EB1D4400023C6E90043394677
:101BC000BDE8F087002A53D0B2FA82F2002A40F032
:101BD000B680491B4FEA154E1FFA85F80127B1FB65
:101BE000FEFC230C0EFB1C1143EA014308FB0CF125
:101BF000994207D9EB180CF1FF3002D2994200F25A
:101C0000EC808446591AA3B2B1FBFEF00EFB10140F
:101C100043EA044408FB00F8A04507D92C1900F159
:101C2000FF3302D2A04500F2DC801846A4EB080482
:101C300040EA0C40BEE78B4208D9002E78D000273E
:101C4000C6E9000138463946BDE8F087B3FA83F7A4
:101C50007FB98B4202D3824200F2BD80841A61EBCD
:101C6000030301209846002EA9D0C6E90048A6E744
:101C7000FFDEC7F12005BB4022FA05FC4CEA030C4D
:101C800001FA07F420FA05F821FA05F34FEA1C4E91
:101C900048EA0404B3FBFEF9210C0EFB19331FFACA
:101CA0008CF841EA034309FB08FA9A4502FA07F265
:101CB00000FA07F10BD91CEB030309F1FF3080F0A8
:101CC00088809A4540F28580A9F102096344A3EB1C
:101CD0000A03A4B2B3FBFEF00EFB103344EA034444
:101CE00000FB08F8A04508D91CEB040400F1FF3301
:101CF0006BD2A04569D90238644440EA0940A4EB9C
:101D00000804A0FB02894C45C6464B4654D351D02B
:101D1000002E69D0B1EB0E0264EB030404FA05F562
:101D200022FA07F3FC401D43C6E90054002746E7AA
:101D30003746304643E7184637E707461FE7C2F104
:101D4000200320FA03F7954001FA02F021FA03F389
:101D50004FEA154E3843010CB3FBFEF71FFA85F826
:101D60000EFB173341EA034107FB08F38B4204FAE9
:101D700002F407D9691807F1FF3C28D28B4226D913
:101D8000023F2944CB1A81B2B3FBFEF00EFB1033A5
:101D900041EA034100FB08F38B4207D9691800F1BF
:101DA000FF3C10D28B420ED902382944C91A40EAAE
:101DB000074714E74145ABD2B8EB020E69EB0C02C2
:101DC00001381346A4E76046F0E7184695E76746F2
:101DD000D8E781467BE7384645E7ACF1020C2B4457
:101DE00010E702382C4421E73746E8E6704700BF89
:101DF00010B5064C00222046012100F091FE012280
:101E000020461146BDE8104000F08ABE00000240A6
:101E10007047704710B594B0102200210AA8FEF751
:101E20002DFA1422002103A8FEF728FA214B0021E5
:101E300001911A6C42F0805018641C6C04F08053BD
:101E40000193019B02911C490A6822F4404040F42E
:101E500000440C600B6803F4404102914FF480325F
:101E60004FF480004FF0010C0224029BCDE908C220
:101E70000423CDE90E40A821072208A8CDE910319E
:101E80001293139200F0D0FA08B172B6FEE74FF445
:101E9000805C4FF00F0E0590CDE906C0214603A8E7
:101EA000CDE903E400F0A0FC08B172B6FEE714B07F
:101EB00010BD00BF0038024000700040F0B589B08E
:101EC00000F0B4FEFFF7A6FF1422002103A8FEF7DE
:101ED000D5F90024624B00941A6B42F0800018631D
:101EE000196B01F080050095009A01941E6B46F075
:101EF00004071F631A6B02F004000190019A029418
:101F0000196B584841F001051D631B6B012203F05A
:101F1000010611460296029B012700F001FE03A96B
:101F20005048CDE90377CDE9054400F019FD0222C0
:101F300003A94D480597CDE9032400F011FD4B4856
:101F40004B4904614FF4E1354FF00C0CC0E900152A
:101F5000C0E90244C0E905C4C46100F0DFF90546E8
:101F600008B172B6FEE7FFF753FF42483E4EFEF758
:101F7000EDF94148FEF7EAF93E48FEF7E7F93F4838
:101F8000FEF7E4F93E48FEF7E1F93E48FEF7DEF9D8
:101F90003D493E48FEF7DAF93D4A3E493E48FEF7E4
:101FA000D5F914240221304600F0B4FD0544322056
:101FB00000F068FE013CF5D138483949394C092D0B
:101FC00088BF01463848FEF7C1F92D48FEF7BEF933
:101FD000FFF71FFF2146354827686668FEF7B6F908
:101FE000334B9F4202D3334A974216D9314B304A82
:101FF00031483946FEF7AAF93048314EFEF7A6F9C6
:10200000304A3368116881F3088898472E4F384664
:10201000FEF79CF9FFF7ECFEF9E7B44202D82B4932
:102020008E4205D91F4A2A483146FEF78FF9E3E769
:10203000092DE1D9274827686568FEF787F901224D
:102040001146084800F06CFD2348846087F3088837
:10205000A847224C2046FEF779F9FFF7C9FEF9E7B9
:1020600000380240000002400008024098000020B2
:1020700000440040592E0008962E0008E52E000866
:10208000FB2E0008352F0008672F00086B2F000873
:10209000882F0008912F00089D2F00084D2E000862
:1020A000402E000800400008C52F0008F02F00084F
:1020B00000000020000001202F30000887310008B8
:1020C0000400FF1F0000FF1FB531000800000208D8
:1020D000893000080331000800ED00E050310008AD
:1020E000FEE7FEE7FEE7FEE7FEE770477047704752
:1020F00000F0B6BD82B00C4B002100915A6C42F446
:10210000804058645A6C02F480400090009A01911B
:10211000196C41F080521A641B6C03F080500190DE
:10212000019B02B0704700BF0038024010B5044662
:1021300088B01422002103A8FEF7A0F82268144BEF
:102140009A4222D103F5FA3000210191046C44F443
:1021500000320264036C03F400340194019A02918A
:10216000016B41F001020263006B022100F00103E8
:102170000C24072003220293CDE90341CDE9062078
:1021800003A90448029B00F0EBFB08B010BD00BFA0
:102190000044004000000240026802F10C0353E8D2
:1021A000001F21F4907C0C3242E800C30268002B2F
:1021B000F2D102F1140151E800CF2CF0010302F139
:1021C000140C4CE800310029F3D1036B012B0BD127
:1021D00002F10C0C5CE8001F21F0100302F10C0C62
:1021E0004CE800310029F3D12022002380F842205E
:1021F00003637047026838B505461369E96823F43C
:10220000405008431061AB682869D468696903438A
:10221000E8690B4324F4164424F00C0103430B43F8
:10222000D3605369AC69234923F4407020438A4248
:10223000506103D001F5806C624526D100F080FB2F
:10224000D5E90043ED691922B5F5004FA0FB020165
:102250001ED19E461EEB0E024FF000035B41FFF7BE
:1022600045FC4FF0640CB0FBFCF10CFB1100C2000C
:102270003232B2FBFCF303F0070505EB011C5900F9
:1022800001F4F8756544A56038BD00F049FBD7E757
:102290009A009B0FFFF72AFC4FF0640CB0FBFCF197
:1022A0000CFB110002013232B2FBFCF303EB01150F
:1022B000E9E700BF00100140F7B504460D46174698
:1022C0001E4621680B6835EA030301D1002021E096
:1022D000701CF7D000F0D0FCC01B86421CD3DEB1CE
:1022E0002168CA685207ECD5802DEAD0402DE8D08D
:1022F0000B681B07E5D5002501950E6801964F6810
:1023000001972046019BFFF747FF0820606484F88F
:102310004050012003B0F0BD0320FBE710B5044698
:1023200048B390F8413003F0FF021BB980F8402019
:10233000FFF7FCFE2168242084F84100CB6823F4D9
:102340000052CA602046FFF755FF2068016921F45A
:1023500090430361426922F02A014161C36843F45A
:102360000052C26020210020606484F8411084F88B
:102370004210606310BD0120FCE72DE9F843984648
:1023800090F84130202B04460E46914647D1002953
:1023900047D0002A45D000254564212084F841001B
:1023A00000F06AFCA168A4F82490B1F5805F0746AC
:1023B000A4F8269003D122690AB935461646B4F826
:1023C00026C01FFA8CF35BB943463A4640212046AB
:1023D000FFF772FF202584F8415058B9BDE8F88313
:1023E00043463A4680212046FFF766FF20B120236E
:1023F00084F841300320F1E720686EB935F8022BEC
:10240000C2F308014160B4F826E00EF1FF391FFA6B
:1024100089FCA4F826C0D2E716F8011BF2E70220D7
:10242000DCE70120DAE700002DE9F341044608B9B2
:1024300001203EE00368DD0710D4226890075DD4D8
:102440002668320700F19F8023685B0700F1BD809A
:10245000A069002840F0208100202AE0A748826877
:1024600002F00C01042907D0856805F00C06082E3F
:102470000AD14768790207D5A04801688A03DCD5EC
:102480006568002DD9D1D3E76268B2F5803F13D1DA
:10249000076847F48035056000F0EEFB974F06466D
:1024A0003A689303C9D400F0E7FB831B642BF7D988
:1024B000032002B0BDE8F081904DB2F5A02F2B684B
:1024C00007D143F480232B60286840F480312960D1
:1024D000E2E723F480302860296821F480262E600A
:1024E000002AD9D100F0C8FB06462F68BF03A4D547
:1024F00000F0C2FB821B642AF7D9D9E77F4FBE6880
:1025000016F00C0F07D0BB6803F00C00082811D19F
:1025100079684E020ED4794E31688D0702D5E26893
:10252000012A85D13368256923F0F80747EAC500F9
:10253000306085E7E568724FB5B10120386000F082
:102540009BFB6E4D07462968880707D52F682269CF
:1025500027F0F80646EAC2032B6071E700F08CFB17
:10256000C01B0228EFD9A3E73D6000F085FB634D57
:1025700006462A6891077FF563AF00F07DFB831B59
:10258000022BF6D994E761695E4B79B101261E6092
:1025900000F072FB594D0646696F8F073FF554AF47
:1025A00000F06AFB831B022BF6D981E7196000F06B
:1025B00063FB524D07466A6F90077FF545AF00F009
:1025C0005BFBC01B0228F6D972E74C4D2A6C12F057
:1025D00080571DD10197286C40F080562E64296CDD
:1025E00001F080530193019B0126474D2A68D105D4
:1025F00010D5A368414D012B1CD12B6F43F001076F
:102600002F6700F039FB3D4F804641F2883537E0B7
:102610000026EAE72F6847F48070286000F02CFB62
:1026200007462968CA05E4D400F026FBC01B02282F
:10263000F7D93DE7052B04D1286F40F00401296745
:10264000DBE72A6F22F001072F67286F20F00401D3
:102650002967002BD5D100F00FFB41F288380746DF
:102660002B6F98070FD500F007FBC21B4245F7D927
:102670001EE700F001FBA0EB0802AA423FF618AFEC
:102680003A6F9307F5D5002E3FF4E2AE1B4E306C47
:1026900020F080513164DBE6184DAB6803F00C0785
:1026A000082F48D0194E02284FF00000306035D175
:1026B00000F0E2FA07462A68910129D4D4E907100C
:1026C000676AE36AA46A014341EA871E62084EEA28
:1026D0000361501E41EA00476F600125356000F03C
:1026E000CBFA064C07462668B2013FF5B5AE00F0BE
:1026F000C3FAC31B022BF6D9DAE600BF003802404A
:1027000000004742800E4742007000406000474290
:1027100000F0B2FAC11B0229CDD9C9E600F0ACFA2B
:1027200007462E68B3017FF597AE00F0A5FAC31BEC
:10273000022BF6D9BCE601283FF4BBAE6D68E26916
:1027400005F4800696427FF473AE216A05F03F03DC
:102750008B427FF46DAE676A47F6C07605EA060CD9
:10276000BCEB871F7FF464AEA26A510805F44033C6
:102770004F1EB3EB074F7FF45BAEE46A05F0706564
:10278000B5EB046F14BF0120002092E6134908B591
:102790008B6803F00C02042A1CD0082A1CD14B6859
:1027A00003F03F024B68496813F4800314BF0C48E0
:1027B0000C48C1F3881C18BF0023ACFB0001FFF7D5
:1027C00095F9064A5368C3F3014101314A00B0FB51
:1027D000F2F008BD0248FCE70248FAE70038024080
:1027E00000127A000024F4002DE9F0410D46044661
:1027F00010B90120BDE8F081444B1A6802F00700CF
:10280000884228D3226897072DD4D00741D43F4E61
:10281000376807F00703AB4266D8256869076CD4B0
:102820002B0707D53A482469856825F4604141EAB9
:10283000C4068660364FFFF7A9FFBB68354A3649A4
:10284000C3F30315545DE04008603448006800F0AD
:10285000C9F90020CEE7CEB21E701F6807F0070846
:102860008845C6D1CEE72A4B12F0040F1EBF9968E7
:1028700041F4E0519960160742BF996841F4604104
:1028800099602349A768886820F0F0063E438E606F
:10289000BBE762681E4B012A1CD11E6816F4003F7C
:1028A000A7D01B4EB76827F003031343B36000F0B3
:1028B000E3F941F288380746B268606802F00C011B
:1028C000B1EB800FA3D000F0D7F9C31B4345F3D978
:1028D00003208FE7911E0129186802D810F0007FAD
:1028E000DEE710F0020FDBE7EAB23270316801F088
:1028F0000700A8427FF47DAF8FE7054EE268B76816
:1029000027F4E0531343B3608AE700BF003C024062
:1029100000380240E43100086C000020680000200C
:10292000044B054A9868C0F382210448535C006850
:10293000D840704700380240F43100086C00002095
:10294000044B054A9868C0F342310448535C006860
:10295000D840704700380240F43100086C00002075
:102960002DE9F04F85B00B68DFF8A481664A01932A
:102970004FF0010B0023019D0BFA03F42540AC42FC
:1029800040F0B2804E684FEA430E06F0030403277E
:1029900007FA0EF704F1FF3CFF43BCF1010F00976B
:1029A0003BD8D0F8089009EA070ACF6807FA0EF773
:1029B00047EA0A0CC0F808C0D0F80490C6F3001A21
:1029C00029EA05070AFA03FC4CEA0709C0F8049053
:1029D000D0F80CA0009F0AEA070C8F6807FA0EF7E0
:1029E00047EA0C09022CC0F80C9018D1DF0800EB64
:1029F000870903F0070AD9F820704FEA8A0A4FF0D6
:102A00000F0C0CFA0AFC27EA0C0C0F6907FA0AF7FC
:102A100047EA0C0AC9F820A001E0032CD8D1D0F86D
:102A20000090009F04FA0EF409EA0707274316F402
:102A3000403F076058D04FF0000ACDF80CA0D8F8FE
:102A4000447047F48044C8F84440D8F8447023F0F8
:102A5000030E07F4804403940EF1804C039F0CF5A1
:102A60009C3703F003044FEA840ED7F808900F2434
:102A700004FA0EF429EA040C244CA04213D004F505
:102A8000806A504537D00AF58069484536D009F547
:102A90008064A04235D004F5806948450CBF4FF0F2
:102AA000040A4FF0070A0AFA0EF444EA0C04BC6068
:102AB0009468EF4316F4801F0CBF3C402C43946095
:102AC000D46816F4001F0CBF3C402C43D4605468FB
:102AD00016F4003F0CBF3C402C4354601468F603CE
:102AE00054BF3C402C4314600133102B7FF443AFA0
:102AF00005B0BDE8F08F4FF0010AD4E74FF0020AAD
:102B0000D1E74FF0030ACEE7003C0140000002404D
:102B1000003802400369194214BF012000207047A9
:102B20000AB1816170470904FBE70000074AD368D6
:102B3000000223F4E06300F4E0611804030C19437D
:102B400041F0BF6141F40030D060704700ED00E01B
:102B5000174B70B5DC68C4F30224C4F10705042DDB
:102B600004F1040628BF04254FF0FF33062E03FAB4
:102B700005FC8CBF033C002421EA0C01A14003FAB0
:102B800004F422EA0405002845EA0105A8BF00F183
:102B900060404FEA0516BCBF00F00F00054AF3B2D3
:102BA000AABF00F56140135480F8003370BD00BF28
:102BB00000ED00E014ED00E00138B0F1807F0AD2B2
:102BC000064B074A5860F02182F8231000200722A4
:102BD00098601A6070470120704700BF10E000E065
:102BE00000ED00E038B50E4A0E4B4FF47A71054601
:102BF00018781368B1FBF0F4B3FBF4F0FFF7DCFFD7
:102C0000044658B90F2D09D8024629464FF0FF3027
:102C1000FFF79EFF04480560204638BD0120FCE711
:102C20006C000020640000206800002008B50B4BF9
:102C30001A6842F400701860196841F480621A60E2
:102C4000186840F4807119600320FFF76FFF0F20B0
:102C5000FFF7C8FFFFF74EFA002008BD003C024016
:102C6000034A044B1168187808441060704700BF8D
:102C7000E000002064000020014B1868704700BF8E
:102C8000E000002038B50446FFF7F6FF631C1CBFC8
:102C9000054B1B78054618BFE418FFF7EDFF401BF6
:102CA000A042FAD338BD00BF64000020034AD2F826
:102CB000883043F47000C2F88800704700ED00E0EF
:102CC0000B4B196810B5024609B90A481860186814
:102CD00009490A4C0244091B8A4206D9FDF7A4FAA5
:102CE0000C2202604FF0FF3010BD1A60FCE700BFFD
:102CF00094000020E80000200000012000040000F3
:102D000070B50E4615460024AC4201DB284670BD66
:102D1000AFF3008030550134F6E7000038B50D48B8
:102D200014464FF0FF3392B2FFF727FB05464FF4EE
:102D30007A704FF43453604390FBF3F0002808BFDF
:102D40000120FFF79FFF002D0CBF20464FF0FF3002
:102D500038BD00BF980000204FF0FF3070474FF49F
:102D600000534B60002070470120704700207047DF
:102D7000DFF834D0FFF79AFF0C480D490D4A0023C5
:102D800002E0D458C4500433C4188C42F9D30A4A20
:102D90000A4C002301E013600432A242FBD3FDF78A
:102DA00049FAFFF78BF8704700000120000000206F
:102DB000700000204832000870000020E800002069
:102DC000FEE70000F8B500BFF8BC08BC9E4670479F
:0C2DD000F8B500BFF8BC08BC9E46704778
:102DDC0004000020000000000000000000000000C3
:102DEC0000000000000000000000000000000000D7
:102DFC0000000000000000000000000000000000C7
:102E0C0000000000000000000000000000000000B6
:102E1C0000000000000000000000000000000000A6
:102E2C000000000000000000000000000000000096
:102E3C00000000001B5B33316D5945531B5B306D3B
:102E4C00001B5B33366D4E4F1B5B306D001B5B33D1
:102E5C00326D494E464F3A201B5B33366D2A2A2A77
:102E6C002A2A2A2A2A2A2A2A2A2A2A2A2A2A2A2AB6
:102E7C002A2A2A2A2A2A2A2A2A2A2A2A2A2A2A1BB5
:102E8C005B306D0D0A1B5B306D001B5B33326D4983
:102E9C004E464F3A201B5B33366D2A20201B5B338A
:102EAC00336D53544D333220526574726F426974D2
:102EBC004C6162204446552055534220424F4F549A
:102ECC004C4F414445521B5B33366D20202A1B5B13
:102EDC00306D0D0A1B5B306D001B5B33326D494E40
:102EEC00464F3A201B5B306D0D0A1B5B306D001B8F
:102EFC005B33326D494E464F3A202D2D2D2D2D2D05
:102F0C002D2D2D2D2D2D2D2D2D2D2D2D2D2D2D2DE5
:102F1C002D2D2D2D2D2D2D2D2D2D2D2D2D2D2D2DD5
:102F2C002D2D0D0A1B5B306D001B5B33326D494E32
:102F3C00464F3A2053544D333220526574726F42CF
:102F4C0069744C61622044465520424F4F544C4F9B
:102F5C00414445520D0A1B5B306D00312E30001B75
:102F6C005B33326D494E464F3A2056657273696F2A
:102F7C006E3A2025730D0A1B5B306D0030393A33E5
:102F8C00393A3235004E6F762031372032303235B7
:102F9C00001B5B33326D494E464F3A204275696CCB
:102FAC00642054696D657374616D703A20257320CB
:102FBC0025730D0A1B5B306D001B5B33326D494E64
:102FCC00464F3A205573657220726571756573743E
:102FDC0020444655204D4F44453A2025730D0A1B7D
:102FEC005B306D001B5B33326D494E464F3A2043CC
:102FFC006865636B696E6720666F72206170706CB8
:10300C0069636174696F6E206669726D7761726550
:10301C00206174203078256C782E2E2E0D0A1B5BC7
:10302C00306D001B5B33316D4552524F523A20418B
:10303C0070706C69636174696F6E20737461636B1B
:10304C0020706F696E74657220283078256C782931
:10305C00206973206F7574736964652052414D202B
:10306C0072616E676520283078256C78202D2030B1
:10307C0078256C78292E0D0A1B5B306D001B5B3399
:10308C00316D4552524F523A204170706C696361F8
:10309C0074696F6E2072657365742068616E646C00
:1030AC00657220283078256C7829206973206F751B
:1030BC007473696465206170706C69636174696FA5
:1030CC006E20737461727420616464726573732012
:1030DC00283078256C7829206F7220617661696CB4
:1030EC0061626C6520666C61736820617265612E2B
:1030FC000D0A1B5B306D001B5B33326D494E464F26
:10310C003A2056616C6964206170706C69636174FB
:10311C00696F6E206669726D7761726520666F7576
:10312C006E642E204A756D70696E6720746F206115
:10313C0070706C69636174696F6E2E2E2E0D0A1B94
:10314C005B306D001B5B33316D4552524F523A2050
:10315C004170706C69636174696F6E206A756D7013
:10316C00206661696C6564206F722072657475727B
:10317C006E6564210D0A1B5B306D001B5B33326D79
:10318C00494E464F3A204A756D70696E6720746FD0
:10319C002044465520426F6F746C6F616465722ECB
:1031AC002E2E0D0A1B5B306D001B5B33316D4552AF
:1031BC00524F523A20444655206A756D7020666114
:1031CC00696C6564206F722072657475726E6564CB
:1031DC00210D0A1B5B306D00000000000000000098
:1031EC0001020304060708090000000001020304A1
:1031FC00232D302B20000000686C4C006566674561
:10320C004647000030313233343536373839414295
:10321C0043444546000000003031323334353637F4
:0C322C00383961626364656600000000D0
:08323800E4E8FF7F0100000043
:043240000902000877
:04324400E10100089C
:103248000400002000000000202E0008002E0008C6
:10325800E02D000800000000000000000000000051
:103268000000000000000000000000000000000056
:103278000000000000000000000000000000000046
:103288000000000000000000000000000000000036
:103298000000000000000000000000000000000026
:1032A8000000000001000000100000000024F400ED
:0400000508002D7151
:00000001FF
