:020000040800F2
:1000000000000120992F0008CD220008D12200080D
:10001000D5220008D9220008DD22000800000000D7
:10002000000000000000000000000000E1220008C5
:10003000E522000800000000E9220008ED22000887
:10004000E92F0008E92F0008E92F0008E92F000830
:10005000E92F0008E92F0008E92F0008E92F000820
:10006000E92F0008E92F0008E92F0008E92F000810
:10007000E92F0008E92F0008E92F0008E92F000800
:10008000E92F0008E92F0008E92F00080000000010
:10009000000000000000000000000000E92F000840
:1000A000E92F0008E92F0008E92F0008E92F0008D0
:1000B000E92F0008E92F0008E92F0008E92F0008C0
:1000C000E92F0008E92F0008E92F0008E92F0008B0
:1000D000E92F0008E92F0008E92F000800000000C0
:1000E000E92F0008E92F0008E92F000800000000B0
:1000F000000000000000000000000000E92F0008E0
:1001000000000000E92F0008E92F0008E92F00088F
:1001100000000000000000000000000000000000DF
:10012000E92F0008E92F0008E92F0008E92F00084F
:10013000E92F00080000000000000000000000009F
:10014000000000000000000000000000F122000894
:10015000E92F0008E92F0008E92F0008E92F00081F
:10016000E92F0008E92F000800000000000000004F
:10017000000000000000000000000000000000007F
:1001800000000000E92F000800000000000000004F
:04019000E92F00084B
:1001A0000348044B834202D0034B03B11847704706
:1001B0007000002070000020000000000548064983
:1001C000091A891001EBD171491002D0034B03B118
:1001D00018477047700000207000002000000000E9
:1001E00010B5064C237843B9FFF7DAFF044B13B17F
:1001F0000448AFF300800123237010BD700000207D
:1002000000000000EC2F000808B5044B1BB10449A6
:100210000448AFF30080BDE80840CFE700000000CD
:1002200074000020EC2F0008014B1868704700BFD5
:100230000000002070B50D4E0D4D761BB61006D097
:100240000024013455F8043B9847A642F9D1094EE1
:10025000094D761B02F0CAFEB61006D00024013408
:1002600055F8043B9847A642F9D170BD003200080A
:10027000003200080432000800320008F0B486079B
:1002800046D0541E002A3CD0CAB2034602E014F104
:10029000FF3436D303F8012B9D07F8D1032C29D95D
:1002A000CDB245EA05250F2C45EA054533D9A4F121
:1002B0001006360903F1200707EB061703F11002B9
:1002C00042E9045542E902551032BA42F8D1721C93
:1002D00014F00C0F03EB021204F00F0613D0331FBF
:1002E00023F003030433134442F8045B9342FBD12D
:1002F00006F003042CB1C9B21C4403F8011B9C4254
:10030000FBD1F0BC704734461346002CF3D1F8E71C
:1003100014460346C2E71A462646E0E70EB410B577
:10032000044683B008B1836963B106A8034601900F
:10033000059AA168204600F01FFD03B0BDE81040FB
:1003400003B0704700F032FBEFE700BF0FB410B509
:100350000B4B1C6882B00CB1A36963B105A80346BE
:100360000190049AA168204600F006FD02B0BDE8A5
:10037000104004B07047204600F018FBEEE700BFC5
:100380000000002083692DE9F04180460E4633B31A
:1003900084682F4B9C4230D02E4B9C4239D02E4B40
:1003A0009C4208BFD8F80C40A3891B072AD52369B3
:1003B00043B3013EA36816F8015F013BA3609DB300
:1003C000002B07DAA7699F4222462946404623DCD4
:1003D0000A2D21D023685A1C22601D70EAE700F024
:1003E000E5FAD8F81830D8F80840002BD1D14046AB
:1003F00000F0DCFA164B9C42CED1D8F80440A38919
:100400001B07D4D42146404600F090F80028D0D0F5
:1004100006E0D8F80840C7E700F028F80130C9D155
:100420004FF0FF30BDE8F081002B09DA224640464C
:100430000A2100F01BF80130F2D00A20BDE8F0815B
:1004400023680A22591C21601A701046BDE8F08109
:10045000483000082830000808300008024B0146E8
:100460001868FFF78FBF00BF00000020F8B50D46E9
:100470001446064608B1836943B3254B9C422AD0F3
:10048000244B9C4229D0244B9C4208BFF468A3898A
:10049000A269A2601A0722D5236903B322686169A1
:1004A000D31AEDB299422F4629DD0133A168501CC1
:1004B0000139A1602060157062699A4216D0A38943
:1004C000DB0701D50A2D11D03846F8BD00F06EFAD1
:1004D0000F4B9C42D4D17468D9E7B468D7E7214662
:1004E000304600F023F838B92369D7E72146304673
:1004F00000F032F90028E7D04FF0FF37E4E721465B
:10050000304600F029F90028F6D122680123CDE712
:10051000483000082830000808300008024B0A461E
:1005200001461868FFF7A2BF000000203B4B70B5E2
:100530001D6806460C460DB1AB69DBB1384B9C42D9
:100540001ED0384B9C424AD0374B9C4208BFEC68C7
:10055000B4F90C2093B2190718D5206908B313F029
:1005600001022CD0636900225B42A361A26060B3E8
:10057000002070BD284600F019FA294B9C42E0D1BA
:100580006C68B4F90C2093B21907E6D4DD063CD5AB
:10059000580726D4206942F00803A3819BB20028A3
:1005A000DDD103F42072B2F5007FD8D03046214669
:1005B00000F09AFAA389206913F00102D2D19907B9
:1005C00058BF6269A2600028D2D1B4F90C301A0673
:1005D000CFD543F04003A3814FF0FF3070BDAC682E
:1005E000B6E7616B51B104F14403994204D030463F
:1005F00000F0C4FAB4F90C200023636300232069DF
:10060000636022F024022060C5E742F04002092323
:1006100033604FF0FF30A28170BD00BF00000020AA
:100620004830000828300008083000088B891A0775
:100630002DE9F0410C46804641D44A68002A59DD34
:10064000E66A002E53D00022D8F80050216AC8F87C
:10065000002013F4805251D101234046B047431C7F
:100660005FD0A389E66A216A5F0705D56268636B7C
:10067000801A0BB1236CC01A024600234046B047D3
:10068000461C45D1D8F80030B4F90C20002B55D0C9
:100690001D2B01D0162B5AD123690022C4E9003248
:1006A000616BC8F8005011B304F14403994202D0C1
:1006B000404600F063FA00206063BDE8F0810E69F7
:1006C000AEB10D680E6099070CBF63690023AD1BC6
:1006D000A3600AE02B463246A76A216A4046B84723
:1006E0000028A5EB000506440ADD002DF2DC002001
:1006F000BDE8F0810A6C002AA2DCF8E7606DB3E780
:10070000A38943F04003A3814FF0FF30BDE8F0819F
:100710002269A389226000226260DA04C0D5606584
:10072000BEE7D8F80030002B9BD01D2B0CD0162B29
:100730000AD0A38943F04003A381D9E72169C4E922
:100740000013D304ACD5EAE7C8F80050CFE742F075
:100750004002A281CCE700BF0B6923B310B5044669
:1007600082B008B18369BBB1104B994212D0104BD3
:10077000994216D00F4B994208BFE168B1F90C308D
:100780002BB1204602B0BDE81040FFF74FBF00205C
:1007900002B010BD6168F1E7019100F007F901991D
:1007A000E2E7A168EAE70020704700BF4830000890
:1007B000283000080830000820B1054B01461868B1
:1007C000FFF7CABF034B0449186800F035B900BFF2
:1007D000000000200430000859070008002070477E
:1007E000014900F029B900BF5907000800207047EF
:1007F00070B54A1E682505FB02F50E4605F1740129
:1008000000F012FA044640B100210C30666005F198
:1008100068022160A060FFF731FD204670BD00BF77
:100820001E4B70B51D68AB69064643B34835D5E924
:100830000134013B05D51EE0013B5A1C04F168045C
:1008400019D0B4F90C20002AF6D10025144B6566A6
:10085000C4E90055A560C4E90455A5612946E360D3
:10086000082204F15C00FFF709FDC4E90D55C4E955
:100870001255204670BD2C682CB12546D7E7284676
:1008800000F010F8D2E704213046FFF7B1FF04462C
:1008900028600028F1D10C233360EAE70430000817
:1008A0000100FFFF2DE9F84F334B34491A6881628C
:1008B00090424FF00003C0E91233036504BF0123E7
:1008C00083610546FFF7ACFF68602846FFF7A8FF85
:1008D000A8602846FFF7A4FF6E68E86000240423A0
:1008E000F3607466C6E90044B460C6E90444B461C8
:1008F000214606F15C000822FFF7C0FCDFF888B053
:10090000AF68DFF888A0DFF88890DFF888801C4B9C
:10091000C6F83080C6E9086BC6E90AA92146FB6023
:1009200008227C66C7E90044BC60C7E90444BC6196
:1009300007F15C00FFF7A2FCEE68124BC7F83080AD
:10094000C7E9087BC7E90AA92146F3607466C6E9CE
:100950000044B460C6E90444B46106F15C000822B6
:10096000FFF78CFC0123C6E9086BC6E90AA9C6F8A3
:100970003080AB61BDE8F88F04300008E107000863
:1009800009000100120002003D140008651400086F
:10099000A5140008C5140008024B0349186800F0AC
:1009A0004BB800BF0430000859070008836903B939
:1009B00078E77047704700BF704700BF704700BFBF
:1009C000704700BF024B0349186800F00FB800BF22
:1009D00000000020DD070008024B0349186800F002
:1009E00005B800BF00000020ED0700082DE9F04128
:1009F00010F148071BD088460026D7E90154013D75
:100A00000FD4A389012B05F1FF3506D9B4F90E30B7
:100A10000133204601D0C04706436B1C04F1680433
:100A2000EFD13F68002FE8D13046BDE8F0813E4667
:100A30003046BDE8F08100BF2DE9F84310F14807CA
:100A40001FD0884606464FF00009D7E90154013D02
:100A500011D4A389012B05F1FF3508D9B4F90E3063
:100A600001332146304602D0C04749EA00096B1CD9
:100A700004F16804EDD13F68002FE6D14846BDE897
:100A8000F883B9464846BDE8F88300BF70B50C4608
:100A9000B1F90E10002996B016461D4613DB6A46C2
:100AA00000F03CFD00280EDB019A02F47042A2F532
:100AB0000052B2FA82F252094FF4806300202A6099
:100AC000336016B070BDA38900221B062A6004D5CE
:100AD00040230020336016B070BD4FF480630020C7
:100AE000336016B070BD00BF8A8992070B4606D5E9
:100AF00001F1470201211A60C3E90421704770B572
:100B000082B001AB6A460C460646FFF7BFFF00996C
:100B10000546304600F088F8B4F90C3070B116493B
:100B2000B162019A0099206043F08003A381C4E977
:100B300004018AB92B43A38102B070BD9A05FBD48E
:100B400023F0030304F1470243F002030121A381D0
:100B50002260C4E90421EFE73046B4F90E1000F03A
:100B600075FE10B9B4F90C30E4E7A38923F0030350
:100B700043F001031BB2DDE7E107000800293CD088
:100B800038B551F8043C0C1F002BB8BFE4180546DB
:100B900000F0D8FF234B1A682AB1A2420DD9216870
:100BA0006018824223D0626028461C60BDE838404D
:100BB00000F0CABFA34203D81A465368002BF9D1EC
:100BC00011685018A04219D024D8216860188342B7
:100BD00006D0636054602846BDE8384000F0B4BFDA
:100BE000D3E900030144636021605460F3E7D2E974
:100BF0000002014462602160D6E77047206801442A
:100C0000501883421160E6D1D3E9000301445360D8
:100C10001160E0E70C232B602846BDE8384000F067
:100C200093BF00BF8C000020F8B5CD1C25F0030554
:100C300008350C2D38BF0C25002D064633DBA942A4
:100C400031D82A4F00F07EFF3A6852B113685B1B1F
:100C500004D43FE023685B1B29D522465468002C4E
:100C6000F8D1796800293BD02946304600F0D4FB02
:100C7000431C28D0C41C24F00304A04205D0211A30
:100C8000304600F0C9FB01301DD02560304600F031
:100C90005BFF04F10B0020F00700231DC21A01D0F6
:100CA0001B1AA350F8BD0C2232600020F8BD0B2B9C
:100CB00005D8A242636811D05360E7E71446236069
:100CC0001C442560E2E70C233046336000F03CFF13
:100CD0000020F8BD0B2BF1D8536814463B60D5E7D4
:100CE000304600F099FB7860BEE700BF8C00002022
:100CF0009368013B002B936011DA10B49469A3420E
:100D000009DB0A2907D01368581C106019700846BF
:100D10005DF8044B70475DF8044BFFF7A7BB136801
:100D2000581C106019700846704700BF9BB1F8B599
:100D300013440F4606465D1E541E01E0AC4208D027
:100D40003A4614F8011F3046FFF7D2FF431CF5D195
:100D5000F8BD0020F8BD0020704700BF936810B5B3
:100D6000144613B95360184610BD00F0EBFB002386
:100D7000C4E9013310BD00BF2DE9F04F9FB08B4691
:100D800090461C46039018B18369002B00F0B78091
:100D9000A24B9B4500F0B980A14B9B4500F0C7805A
:100DA000A04B9B4504BF039BD3F80CB0BBF80C30A1
:100DB000180740F1B280DBF81030002B00F0AD8056
:100DC00030238DF8323098F800300594002120222D
:100DD0000B918DF83120944E0127002B00F0878075
:100DE000252B00F01581454603E0252B00F0A3805C
:100DF00025466B786C1C002BF7D1B4EB080A76D033
:100E00004246534659460398FFF790FF01306ED093
:100E10000B9B6A7853440B93002A68D000234FF051
:100E2000FF3201340693CDE908338DF85B301C9313
:100E3000079205E0069A07FA03F313432C4606933C
:100E40002546052215F8011B304600F029FDAA466B
:100E5000831B0028EED1069BD90644BF20228DF8C3
:100E60005B2021781A0744BF2B228DF85B202A29AA
:100E700066D1059A1168043200290592C0F29D805E
:100E800009916178A51C2E2973D0684C0322204655
:100E900000F006FD002800F08680001B069B402421
:100EA00004FA00F00343069305F10108297860482D
:100EB0008DF83010062200F0F3FC002800F083804B
:100EC0005C4B002B72D005AB00935A465A4B0398EB
:100ED00006A9AFF300808146B9F1FF3F07D00B9B15
:100EE0004B440B9398F80030002B7FF479AFBBF89C
:100EF0000C305B0618D40B981FB0BDE8F08FFFF7DD
:100F000055FD464B9B457FF447AF039BD3F804B098
:100F1000BBF80C3018073FF54EAF59460398FFF762
:100F200005FB00283FF44CAF4FF0FF30E4E7039B94
:100F3000D3F808B03AE7B4EB080A3FF46FAF5FE7C5
:100F4000A1F13002092A88BFA2469CD8099B01E082
:100F50002C460135297803EB830302EB4303A1F10F
:100F60003002092AAA46F3D92E2904F10205099371
:100F70008BD19AF801102A292FD1059B9AF80210DB
:100F80001A6807920433002A05930AF103050AF14F
:100F9000020338DB254C032220469A4600F080FCF1
:100FA00000287FF47AAFA84655467FE7059B0733B4
:100FB00023F007030833059391E7494243F0020306
:100FC000099106935DE705AB00935A461A4B0398C7
:100FD00006A900F0D5F881467EE7A1F13002002392
:100FE000092A079301D915E05546697803EB830375
:100FF00002EB4303A1F13002092A05F1010AF3D9FA
:101000000235079341E74FF0FF329A4607923CE7DB
:10101000444603E7AA46013537E700BF48300008D9
:101020002830000808300008BC310008C43100082E
:10103000C8310008000000002D0D000810B4044C59
:1010400013460A46014620685DF8044BFFF794BE3C
:10105000000000202DE9F0470C4691460A69896896
:10106000DDF820808A42B8BF0A46C9F8002094F80B
:10107000431006461F4611B10132C9F8002023680B
:1010800099065CD5D9F800200232C9F800202368FF
:1010900013F0060F19461DD1E1688A1A002AD8BF3D
:1010A000194617DD04F1190A002505E0E368D9F8AF
:1010B00000209B1AAB420CDD0123524639463046D4
:1010C000C047013005F10105F0D14FF0FF30BDE818
:1010D000F087216894F84330003318BF01238A0653
:1010E0000AD5E1185A1C302081F84300224494F8B4
:1010F000451082F84310023304F14302394630466A
:10110000C0470130E1D02368A268216903F00603DB
:10111000042B1DD08A4226DD4FF00009521A91445B
:101120001A34002501E04D451DDA012322463946D7
:101130003046C047013005F10105F4D1C5E713F091
:10114000060F13D094F84330003318BF0123D3E7C0
:10115000D9F80000E3688A42A3EB000323EAE379AD
:10116000DCDC002BDCDC0020BDE8F087E168D9F88E
:1011700000208A1A002AD8BF194693DCAAE700BFCC
:101180002DE9F0430C46097E85B06E2906461746C8
:101190000C98984604F1430E6DD039D9732900F0AC
:1011A000F68044D9752900F00481782940F0118136
:1011B00078232268DFF858C284F8453001681506A4
:1011C00051F8043B016040F1A180D10744BF42F0D7
:1011D00020022260002B00F093801022002184F86E
:1011E00043106068A0600028C0F2C880216821F028
:1011F00004012160002B40F0A380002840F0C08053
:101200007546082A00F0AC80AEEB0503236141E08F
:10121000632900F0E5801AD8002938D0582940F019
:10122000D88084F845102268DFF8E8C1C6E76F2946
:1012300000F0BF80702940F0CC802268DFF8D0C178
:1012400042F020027823226084F84530B6E7642912
:1012500002D0692940F0BD8022680368110603F1BD
:10126000040557D5196805600B46002959DBDFF8DE
:10127000A4C10A22B5E70368226861691D1D0560E3
:1012800015061B6802D4500600F1BD8019600023CA
:1012900075462361CDF800803B4603AA21463046BF
:1012A000FFF7D8FE013020D02A4623693946304660
:1012B000C047013019D022680398E368920719D516
:1012C0001A1A002A16DD04F11909002504E0E36862
:1012D00003981A1AAA420DDD01234A4639463046C0
:1012E000C047013005F10105F1D14FF0FF3005B0E5
:1012F000BDE8F0839842B8BF184605B0BDE8F0835A
:10130000226822F020022260102267E7500648BFC0
:101310009BB25AE75106A5D5B3F9003005601946CE
:10132000A3E76168A1602D200029C3F1000384F8C0
:10133000430002DB22F004022260DFF8D8C00A2258
:10134000754600E00B46B3FBF2F102FB113093420D
:101350001CF8000005F8010DF4D2082A7FF454AF00
:101360002368DB077FF550AF626823699A423FF735
:101370004BAF302305F8013C013D45E7002BDFD1A1
:101380009CF8003084F8423004F1420539E70368E4
:101390006268191D01601D680021284600F080FA6E
:1013A000002832D0401B60602061002384F8433065
:1013B00070E72268036812F0800F03F104051AD069
:1013C0001B6805606F290CBF08220A22DFF844C0A1
:1013D00004E7012384F84210236104F14205E4E7A5
:1013E00003681A68191D0123016004F1420584F89D
:1013F00042202361D9E712F0400F0DBF1B68056042
:101400001B880560DEE7198041E76068CCE700BF14
:10141000E4310008D031000838B5074C00230546F8
:101420000846236000F0FEFB431C00D038BD236853
:10143000002BFBD02B6038BDE800002010B50C4617
:10144000B1F90E1000F0A8FB002803DB636D034424
:10145000636510BDA38923F48053A38110BD00BF31
:10146000002070472DE9F0411646B1F90C201F46C7
:10147000D3050C460546B1F90E1009D422F480526A
:10148000A2813B4632462846BDE8F04100F01EB836
:101490000022022300F0ECF9B4F90C20B4F90E108C
:1014A000ECE700BF10B50C46B1F90E1000F0E0F902
:1014B000A389421C0EBF23F4805343F4805360651C
:1014C000A38110BDB1F90E1000F016B870B50D462D
:1014D000084C114606461A4628460023236000F0B1
:1014E000D1FE431C00D070BD2368002BFBD03360BD
:1014F00070BD00BFE800002038B5074C002305464A
:101500000846236000F066FB431C00D038BD23680A
:10151000002BFBD02B6038BDE800002038B50B460F
:10152000074C0546114618460023236000F05AFB7D
:10153000431C00D038BD2368002BFBD02B6038BD86
:10154000E80000209368002B00F002812DE9F04FA5
:10155000B1F90C309BB20C46190783B08246904615
:1015600035D522699AB313F00202D8F800603DD055
:101570000027D4F828B0D4F820C0DFF8CC923D463C
:101580004D452B463A4628BF4B4661465046D5B19D
:10159000D847002840F3D280D8F808301B1A0744F7
:1015A0002D1AC8F80830002B00F0B780D4F820C0FE
:1015B000D4F828B04D452B463A4628BF4B466146E5
:1015C0005046002DE4D1D6E900750836D8E721460B
:1015D0005046FEF7ABFF002840F03081B4F90C30E4
:1015E000D8F800609BB213F00202C1D113F00109D8
:1015F00040F0B080A76820684D46002D54D09A0571
:1016000040F1BC80AF42BB4600F2E78013F4906F1C
:101610002FD0D4E9041707EB4707A0EB010B07EB2A
:10162000D777681C7F105844B8423A4684BF0746B3
:101630003A465B0540F1E98011465046FFF7F4FA5F
:10164000002800F0F5805A462169019000F078F9F1
:10165000A289019B22F4906242F08002A281A7EB52
:101660000B0203EB0B00676123612060A2602F4631
:10167000AB465A46494600F0FDF9A2682368D21BE2
:101680005B442F46A26023600025D8F80830DB1B9E
:10169000B944C8F80830002B3FD0B4F90C30A76823
:1016A00020689BB2002DAAD1D6E900950836A4E7A0
:1016B0000BF1080353E902679B460833002FF9D06A
:1016C0003A460A21304600F0EBF8002853D00130AA
:1016D000A0EB06094B46D4E904122068BB4228BFA0
:1016E0003B46884203D9A5681544AB4219DC9A42AF
:1016F0007DDC1346A56A216A32465046A847051E7E
:101700001CDDB9EB05096BD00120D8F808305B1B54
:101710002E447F1BC8F8083013BB002003B0BDE87F
:10172000F08F31462A4600F0A5F923682B44236048
:1017300021465046FFF710F80028E2D0B4F90C30EB
:1017400043F040034FF0FF30A38103B0BDE8F08FBA
:101750000020704733469146104617464E469B463A
:10176000002FA5D00028B5D13A460A21304600F016
:1017700097F80028ABD17B1C9946ACE723698342DC
:1017800015D36169A94212D82E4BA76A9D4294BF16
:101790002B466FF000434A4693FBF1F3504601FBA2
:1017A00003F3216AB847071EC8DDED1B6DE7AF42A2
:1017B00028BF2F463A46494600F05CF9A3682268E4
:1017C000DB1B3A44A3602260002BEED12146504639
:1017D000FEF7C2FF0028E8D0B0E72F46AB4648E747
:1017E00021465046FEF7B8FF00288ED0A6E71A46DD
:1017F0003146019300F03EF9019BA1682268C91AA5
:101800001A44A16022601D467BE7504600F09EF915
:10181000034600287FF423AF21695046FFF7AEF955
:10182000B4F90C300C2223F08003CAF8002087E7BB
:101830000C23CAF80030B4F90C3081E74FF0FF30C8
:101840006CE700BFFEFFFF7F00FCFF7F38B5074C51
:10185000002305460846236000F0CCF9431C00D065
:1018600038BD2368002BFBD02B6038BDE80000207A
:1018700070B50D46084C114606461A462846002308
:10188000236000F0BFF9431C00D070BD2368002B1B
:10189000FBD0336070BD00BFE800002000000000F6
:1018A00001F0FF01102A2BDB10F0070F08D010F811
:1018B000013B013A8B422DD010F0070F42B3F6D115
:1018C000F0B441EA012141EA014122F007047FF02E
:1018D00000070023F0E80256083C85EA010586EA85
:1018E000010685FA47F5A3FA87F586FA47F6A5FAC1
:1018F00087F68EB9EED1F0BC01F0FF0102F00702CD
:1019000032B110F8013B013A83EA010313B1F8D177
:101910000020704701387047002D06BF3546033858
:10192000073815F0010F07D1013015F4807F02BF91
:10193000013015F4C03F0130F0BC0138704700BFE2
:10194000844641EA000313F003036DD1403A41D3CA
:1019500051F8043B40F8043B51F8043B40F8043B89
:1019600051F8043B40F8043B51F8043B40F8043B79
:1019700051F8043B40F8043B51F8043B40F8043B69
:1019800051F8043B40F8043B51F8043B40F8043B59
:1019900051F8043B40F8043B51F8043B40F8043B49
:1019A00051F8043B40F8043B51F8043B40F8043B39
:1019B00051F8043B40F8043B51F8043B40F8043B29
:1019C00051F8043B40F8043B51F8043B40F8043B19
:1019D000403ABDD2303211D351F8043B40F8043BB9
:1019E00051F8043B40F8043B51F8043B40F8043BF9
:1019F00051F8043B40F8043B103AEDD20C3205D3C9
:101A000051F8043B40F8043B043AF9D2043208D0C0
:101A1000D2071CBF11F8013B00F8013B01D30B8832
:101A200003806046704700BF082A13D38B078DD010
:101A300010F003038AD0C3F10403D21ADB071CBFE2
:101A400011F8013B00F8013B80D331F8023B20F84C
:101A5000023B7BE7043AD9D3013A11F8013B00F885
:101A6000013BF9D20B7803704B7843708B7883700D
:101A7000604670478842F0B40DD98B1883420AD96A
:101A8000841832B1224613F8014D02F8014D9942F3
:101A9000F9D1F0BC70470F2A0ED80346541E002A15
:101AA000F7D001340C44013B11F8012B03F8012F4E
:101AB000A142F9D1F0BC704740EA01039B073BD13A
:101AC000A2F110073F0901F1200606EB071601F10C
:101AD000100300F1100453F8105C44F8105C53F844
:101AE0000C5C44F80C5C53F8085C44F8085C53F850
:101AF000045C44F8045C1033B34204F11004EAD1EE
:101B00007B1C1B0112F00C0F194402F00F0503445B
:101B100015D0043DAD0803EB850C1C1F0E4656F88E
:101B2000047B44F8047F6445F9D10135AD002B44B2
:101B3000294402F00302B1E7541E0346B1E72A46E6
:101B4000ACE700BF704700BF704700BF09B3F8B5EE
:101B50001446CAB106460D4600F034F8A04202D33E
:101B60002F463846F8BD21463046FFF75DF8074658
:101B70000028F6D022462946FFF7E2FE30462946E5
:101B8000FEF7FCFF3846F8BD2746FEF7F7FF38465C
:101B9000F8BD1146FFF748B870B50D46084C114620
:101BA00006461A4628460023236000F033F8431CFB
:101BB00000D070BD2368002BFBD0336070BD00BF28
:101BC000E800002051F8043C181F002BBCBF0B5844
:101BD000C0187047024B58221A604FF0FF30704710
:101BE000E8000020024B58221A604FF0FF30704787
:101BF000E8000020024B58221A600020704700BF06
:101C0000E8000020024B58221A604FF0FF30704766
:101C1000E8000020024B58221A604FF0FF30704756
:101C2000E8000020044A05491368002B08BF0B4652
:101C3000184410601846704794000020F0000020FF
:101C400053B94AB9002908BF00281CBF4FF0FF3123
:101C50004FF0FF3000F074B9ADF1080C6DE904CE1F
:101C600000F006F8DDF804E0DDE9022304B0704777
:101C70002DE9F047089E04468846002B40F08580F9
:101C80008A42154648D9B2FA82F24AB1C2F1200717
:101C900001FA02F320FA07F7954047EA0308944057
:101CA0004FEA154E230CB8FBFEF71FFA85FC0EFB1E
:101CB000178843EA084307FB0CF1994209D9EB184E
:101CC00007F1FF3080F0E380994240F2E080023F6C
:101CD0002B445B1AA4B2B3FBFEF00EFB103344EAB4
:101CE000034400FB0CFCA44509D92C1900F1FF3377
:101CF00080F0CB80A44540F2C88002382C4440EAF2
:101D00000740A4EB0C0400271EB1D4400023C6E911
:101D100000433946BDE8F087002A53D0B2FA82F278
:101D2000002A40F0B680491B4FEA154E1FFA85F88D
:101D30000127B1FBFEFC230C0EFB1C1143EA0143FF
:101D400008FB0CF1994207D9EB180CF1FF3002D2D5
:101D5000994200F2EC808446591AA3B2B1FBFEF01E
:101D60000EFB101443EA044408FB00F8A04507D911
:101D70002C1900F1FF3302D2A04500F2DC80184696
:101D8000A4EB080440EA0C40BEE78B4208D9002EC1
:101D900078D00027C6E9000138463946BDE8F0870B
:101DA000B3FA83F77FB98B4202D3824200F2BD803F
:101DB000841A61EB030301209846002EA9D0C6E9DE
:101DC0000048A6E7FFDEC7F12005BB4022FA05FC6C
:101DD0004CEA030C01FA07F420FA05F821FA05F39E
:101DE0004FEA1C4E48EA0404B3FBFEF9210C0EFB3B
:101DF00019331FFA8CF841EA034309FB08FA9A45A4
:101E000002FA07F200FA07F10BD91CEB030309F100
:101E1000FF3080F088809A4540F28580A9F1020960
:101E20006344A3EB0A03A4B2B3FBFEF00EFB103332
:101E300044EA034400FB08F8A04508D91CEB04045D
:101E400000F1FF336BD2A04569D90238644440EAFF
:101E50000940A4EB0804A0FB02894C45C6464B464A
:101E600054D351D0002E69D0B1EB0E0264EB0304C1
:101E700004FA05F522FA07F3FC401D43C6E90054B5
:101E8000002746E73746304643E7184637E7074618
:101E90001FE7C2F1200320FA03F7954001FA02F090
:101EA00021FA03F34FEA154E3843010CB3FBFEF75A
:101EB0001FFA85F80EFB173341EA034107FB08F3CD
:101EC0008B4204FA02F407D9691807F1FF3C28D2C3
:101ED0008B4226D9023F2944CB1A81B2B3FBFEF0D4
:101EE0000EFB103341EA034100FB08F38B4207D994
:101EF000691800F1FF3C10D28B420ED902382944F8
:101F0000C91A40EA074714E74145ABD2B8EB020EC5
:101F100069EB0C0201381346A4E76046F0E7184667
:101F200095E76746D8E781467BE7384645E7ACF159
:101F3000020C2B4410E702382C4421E73746E8E630
:101F4000704700BF30B5002395B0CDE90A33CDE925
:101F50000C33CDE90333CDE90533224900930293D5
:101F6000086C214A40F080540C640D6C05F08051DF
:101F7000009100990193136823F4404040F4004419
:101F80001460126802F440450121019504234FF4C6
:101F9000803202244FF4800C019D0891A82507216E
:101FA00008A80992CDE90E4C1093CDE91153139175
:101FB00000F064FA08B172B6FEE702462146022537
:101FC0000F2406924FF48053002202A8CDE9024567
:101FD000CDE9042300F072FC08B172B6FEE715B03B
:101FE00030BD00BF003802400070004070B5864D23
:101FF0008EB000242946002000F03AF900F000FAE3
:10200000FFF7A0FFCDE90444CDE906447F4B0194DE
:1020100008941A6B7E4842F0800119631E6B06F02B
:1020200080020192019A0294196B41F004061E632A
:102030001A6B02F004010291029A03941E6B46F09F
:1020400001021A631B6B734E03F0010103912246D8
:102050000121039B00F0D2FD0222002304A96E4857
:102060000694CDE9042300F0EDFC01220123CDE923
:10207000042367480022002304A9CDE9062300F0C9
:10208000E1FC4FF4E13C0C222846AC60C5E9034476
:10209000C5E90644C5E9006C6A6100F07DFE08B13F
:1020A00072B6FEE729460446012000F0E1F85B48DD
:1020B000594EFEF7D3F95A48FEF748F959495A489C
:1020C000FEF744F95948FEF7C9F95948FEF7C6F931
:1020D0002146282204A8FEF7D1F804AC0EAD022157
:1020E000304600F085FD44F8040B642000F0B4F99C
:1020F000A542F4D10498002800F08180002301203B
:102100000599002979D00130069A002A73D0013050
:10211000079E002E6DD00130089C002C67D0013046
:10212000099D002D61D001300A9900295BD0013052
:102130000B9A002A55D001300C9E002E4FD0013052
:102140000D9C002C49D00130834230DA3948FEF72B
:10215000FDF8394A39493A48FEF7F8F83948FEF7A8
:10216000F5F83948394B05689D424AD33849A942A8
:1021700034BF00210121426882420AD3354EB24267
:1021800007D231B172B6344CA26085F3088890470B
:10219000FEE73248FEF7DAF8274A28493048FEF7CA
:1021A000D5F82848FEF7D2F8642000F055F9214808
:1021B0002C4DFEF7CBF8204A20492B48FEF7C6F8F5
:1021C0002048FEF7C3F8C82000F046F92748036806
:1021D000296881F308889847FEE70133B4E70133A3
:1021E000AEE70133A8E70133A2E701339CE70133EF
:1021F00096E7013390E701338AE7013384E701234F
:102200007EE70021B7E700BFA000002000380240B1
:102210000000024000440040000802407030000806
:10222000A8300008B0300008D4300008E0300008C2
:1022300068310008E830000868300008F030000815
:1022400000310008143100080040000800000020A0
:10225000000001200000020800ED00E01C31000831
:10226000243100080000FF1F6C3100080400FF1F2C
:1022700019B1024A024B1070196070479C0000208F
:10228000980000200138012810B513D80D4B1C7898
:10229000012C01D0002010BD0B4800680028F9D0A7
:1022A00014464FF47A7392B200F0A8FD0028F1D1E1
:1022B000204610BDFDF7B8FF092101604FF0FF3047
:1022C00010BD00BF9C00002098000020FEE700BF6A
:1022D000FEE700BFFEE700BFFEE700BFFEE700BF6E
:1022E000704700BF704700BF704700BF00F0A2B842
:1022F000704700BF82B00C4B002100915A6C42F431
:10230000804058645A6C02F480400090009A019119
:10231000196C41F080521A641B6C03F080500190DC
:10232000019B02B0704700BF0038024070B50168E1
:10233000184A88B000239142CDE90333CDE9053333
:10234000079301D008B070BD02F5FA340193256CF3
:10235000114845F400362664216C01F400320192E4
:1023600001990293236B43F001052563246B04F06C
:10237000010602964FF00C0C4FF0030E072203A942
:102380000225029ECDE903C5CDE906E200F05AFB25
:1023900008B070BD0044004000000240044B0549F5
:1023A000D3F8882042F47000C3F888009960704721
:1023B00000ED00E00000000838B50E4A0E4B117821
:1023C0001C6805464FF47A70B0FBF1F2B4FBF2F0F2
:1023D00000F060FC08B90F2D01D9012038BD04467A
:1023E000024629464FF0FF3000F01EFC034B20460A
:1023F0001D6038BD68000020640000206C000020D3
:1024000008B50B4B1A6842F400701860196841F463
:1024100080621A60186840F480711960032000F02F
:10242000F1FB0F20FFF7C8FFFFF764FF002008BD96
:10243000003C0240034A044B1168187808441060BD
:10244000704700BFE400002068000020014B1868BE
:10245000704700BFE400002038B50446FFF7F6FFE0
:10246000631C054602D0044B18780444FFF7EEFFC6
:10247000411BA142FAD338BD68000020002800F0BB
:10248000A9812DE9F0410368DD0782B004462FD50C
:10249000AE498A6802F00C00042800F0EF808D68D5
:1024A00005F00C06082E00F0E5806368B3F5803F68
:1024B00000F0EE80B3F5A02F00F07C81A34D2968D9
:1024C00021F480322A60286820F480262E60002BB8
:1024D00040F0E380FFF7BAFF064605E0FFF7B6FFDE
:1024E000831B642B00F203812F68BB03F6D423689F
:1024F0009F0728D5954FBD6815F00C0F00F093800D
:10250000B86800F00C06082E00F08980E368002B04
:1025100000F00A818E498D4D01230B60FFF796FF75
:10252000074605E0FFF792FFC31B022B00F2DF8096
:102530002A689007F6D52F68266927F0F80040EA48
:10254000C601296023681A0755D4580731D57F483A
:10255000056C15F0805600F0818000267D4D2868BE
:10256000C10540F1B480A368012B00F0C480052BA5
:1025700000F03281754D286F20F0010129672F6F1F
:1025800027F004022A67002B40F0BA80FFF75EFFB5
:1025900041F28837804606E0FFF758FFA0EB080CB1
:1025A000BC4500F2A4802B6F9807F5D4002E40F0B4
:1025B0000B81A069D8B1654DA96801F00C07082FFF
:1025C00000F0CE80644A00210228116000F00E81E4
:1025D000FFF73CFFA846064605E0FFF737FF831BE1
:1025E000022B00F28480D8F800008301F5D400208B
:1025F00002B0BDE8F081636903B3584F534D012227
:102600003A60FFF723FF064604E0FFF71FFF801B39
:1026100002286CD86B6F9B07F7D5236895E779681C
:102620004E023FF573AF494A1668B50743D5E068D7
:10263000012840D0012002B0BDE8F081474E434D53
:102640003360FFF703FF064604E0FFF7FFFE811B40
:1026500002294CD8686F8707F7D4DEE70196016C32
:1026600041F080570764026C02F080530193019B94
:10267000012673E74F6878027FF517AF334E316854
:1026800089037FF535AF6268002A7FF431AFD1E767
:102690002E4E336843F480313160FFF7D7FE2B4F65
:1026A000054604E0FFF7D2FE401B64281FD83A68B5
:1026B0009203F7D51BE7254925690F6827F0F8082D
:1026C00048EAC5020A601A077FF53FAF93E7296819
:1026D00041F480772F60FFF7B9FE07462A68D205DC
:1026E0003FF541AFFFF7B2FEC21B022AF6D9032025
:1026F00002B0BDE8F081154F386F40F00101396735
:10270000FFF7A4FE114D804641F2883705E0FFF740
:102710009DFEA0EB0801B942E9D82A6F9307F6D5D0
:10272000002E3FF446AF4FE0094A084D1360FFF713
:102730008DFE064604E0FFF789FE801B0228D6D8EE
:102740002F68B907F7D42368FDE600BF00380240C0
:10275000000047420070004060004742800E474240
:1027600001283FF445AF6D68E26905F480069642A2
:102770007FF460AF236A05F03F0C9C457FF45AAFAD
:1027800047F6C077616A2F40B7EB811F7FF452AFE5
:10279000A26A5608731E05F44037B7EB034F7FF467
:1027A00049AFE46A05F07065B5EB046F14BF012012
:1027B00000201DE724490A6842F4802008600F6861
:1027C00047F480350D6068E71F4E336C23F080506E
:1027D0003064EEE6012070471B48016F41F00402AF
:1027E0000267036F43F00105056789E7FFF72EFED7
:1027F000064605E0FFF72AFE831B022B3FF677AF64
:102800002F68B901F6D4D4E90736D4E909E2334395
:10281000E46A0E4E43EA8E11500841EA0467431EF3
:1028200047EA0341012269603260FFF70FFE064C60
:10283000054605E0FFF70AFE471B022F3FF657AF9C
:1028400020688201F6D5D2E6003802406000474297
:10285000174908B58B6803F00C0004281BD0082822
:1028600017D14A684B6813F4800302F03F0214D179
:1028700049681048C1F3881CACFB0001FFF7E0F980
:102880000B4A5368C3F3014101314A00B0FBF2F037
:1028900008BD084808BD084808BD4B680649C3F391
:1028A0008810A0FB01010023FFF7CAF9E8E700BF89
:1028B000003802400024F40000127A0060B14A4A55
:1028C000136803F0070C8C4508D2CBB21370126862
:1028D00002F0070C8C4501D0012070472DE9F04132
:1028E0000668B40714D5720704D5404CA56845F4B2
:1028F000E057A760370704D53C4B9A6842F4604420
:102900009C603A4F8568BB6823F0F0022A43BA60A6
:10291000F60780460C4622D54668012E5CD0B01ED4
:10292000324901280F6854D9B90725D52F4DAA6817
:1029300022F003003043A860FFF788FD41F288369B
:10294000074604E0FFF782FDC01BB04249D8A968E2
:10295000D8F8042001F00C0EBEEB820FF2D1224E0B
:10296000376807F00705A54209D9E3B2337030682C
:1029700000F00701A14202D00120BDE8F081D8F8A3
:102980000040620707D5194ED8F80C70B26822F4DF
:10299000E0553D43B560230708D51448D8F810101A
:1029A000836823F4604444EAC10686600F4F104DEB
:1029B000FFF74EFFBB680F490F4AC3F303142E5DA8
:1029C00020FA06F708681760FFF7F6FC0020BDE85C
:1029D000F081B801AAD4CFE7044D2B689D03A5D49C
:1029E000CAE70320C9E700BF003C024000380240AC
:1029F000A43100086C00002064000020054B064A4A
:102A000098680649C0F3822C086812F80C30D84048
:102A1000704700BF00380240B43100086400002055
:102A2000054B064A98680649C0F3423C086812F80C
:102A30000C30D840704700BF00380240B431000865
:102A4000640000202DE9F04F002383B0D1F80090FE
:102A50004FF0010B8A4602E00133102B74D00BFAC1
:102A600003F209EA02018A42F6D1DAF8044004F0DE
:102A7000030203254FEA430C561E05FA0CF7012EFC
:102A80006FEA070563D9032A74D1076802FA0CF2CA
:102A90003D402A4314F4403F0260DDD04E4E0025F5
:102AA0000195776C47F480427264756C23F0030CD7
:102AB0000CF1804805F4804708F59C36019703F037
:102AC0000305464F019AD6F808C0AD000F22AA4070
:102AD000B8422CEA020213D007F5806840456CD05A
:102AE0003F4FB8426DD03F4FB8426FD03E4FB842D3
:102AF0000CBF4FF0040C4FF0070C0CFA05F52A43FD
:102B0000B2603A4E394FB268CD43E6024CBF0A4339
:102B10002A40BA60FA68354EA7024CBF0A432A40E1
:102B2000F2607768314AA6034CBF0F432F405760CD
:102B30001668E40348BF0E4303F101032B4958BF55
:102B40002E40102B0E608AD103B0BDE8F08F86684E
:102B500006EA0507DAF80C6006FA0CF848EA0707F7
:102B60008760D0F804E0C4F300162EEA01079E4007
:102B70003E434660C768DAF8086007EA050E06FAC1
:102B80000CF747EA0E06022AC6607FF47EAFDF0824
:102B900000EB870803F00707D8F820604FEA870E9C
:102BA0000F2707FA0EF726EA0707DAF8106006FA89
:102BB0000EF63E43C8F8206067E70BFA05F52A4396
:102BC0009EE7022707FA05F52A4399E74FF0030C21
:102BD0000CFA05F52A4393E7003802400000024052
:102BE00000080240000C024000100240003C01407E
:102BF0000369194214BF01200020704702B909047B
:102C000081617047074AD3684FF6FF0100020B400D
:102C100000F4E060184340F0BF6343F40031D1603A
:102C2000704700BF00ED00E0184B70B4DC68C4F3DF
:102C30000224C4F10705042D04F1040628BF04256D
:102C4000062E18D9033C4FF0FF33A34022EA0302BB
:102C50004FF0FF36AE4021EA0601A14011430D01BD
:102C60000028ECB20ADB00F1604C0CF5614383F8FC
:102C7000004370BC704700221446E9E7044A00F0A4
:102C80000F000244147670BC704700BF00ED00E0F6
:102C9000FCEC00E00138B0F1807F0FD210B4084B9B
:102CA000084C58604FF0F00C84F823C00022072134
:102CB00010469A6019605DF8044B70470120704718
:102CC00010E000E000ED00E070B504462F482268F7
:102CD000E5681169A36821F440562E431661266900
:102CE0006569D16833432B43E56921F4164626F024
:102CF0000C012B430B43D3605369A66923F4407541
:102D000035438242556105D02148824202D0FFF707
:102D100075FE01E0FFF784FEE2694FF0190CB2F591
:102D2000004FD4E90043A0FB0C0113D09A009B0F85
:102D3000FEF786FF1749A1FB00367509642202FBE6
:102D4000150003013233A1FB0316290101EB5615CF
:102D5000A56070BDDA184FF000035B41FEF770FF0D
:102D60000C4EA6FB00325109642303FB1100C50081
:102D70003235A6FB0526730903F0070C58000CEB4F
:102D8000011200F4F8711144A16070BD00100140FF
:102D9000001401401F85EB5168B338B590F83D3001
:102DA000044603F0FF020BB32168242084F83D00A1
:102DB000CD6825F40053CB602046FFF785FF2068DF
:102DC000026922F490410161456925F02A034361BB
:102DD000C26800254FF0200C42F40053C360256404
:102DE000284684F83DC084F83EC038BD80F83C20B9
:102DF000FFF79CFAD8E70120704700BF2DE9F843A0
:102E00000D4690F83D10202940F09380002D48D0C9
:102E10001746002A45D0984690F83C30012B0446CE
:102E200000F08780012221204FF00009C4F8409073
:102E300084F83C2084F83D00FFF708FBA168A784D4
:102E4000B1F5805F0646E78476D0B4F826C02268E4
:102E500000201FFA8CF384F83C00ABB1B8F1FF3FBF
:102E600022D113681F06FCD57DB315F8010B506005
:102E7000B4F826E00EF1FF318FB2E784B4F826C033
:102E80001FFA8CF3002BE9D1B8F1FF3F5AD1166835
:102E90007306FCD54FF0200884F83D800020BDE883
:102EA000F8830120BDE8F88311680B06DCD4B8F183
:102EB000000F1CD0FFF7CAFA871BB845226816D34B
:102EC00013681906F6D5002DCFD139F8020BC0F3DF
:102ED00008015160B4F826E00EF1FF371FFA87FCB5
:102EE000A4F826C0E38C98B20028B7D1CCE702F151
:102EF0000C0E5EE8006F26F4D07502F10C0848E86D
:102F000000500028F3D102F1140959E8001F21F004
:102F1000010702F1140C4CE800710029F3D12022C2
:102F200084F83D2084F83C10032084F83E20BDE85E
:102F3000F8830220BDE8F8832769002F85D1A946D0
:102F40003D4682E715686906A4D4B8F1000F0AD09F
:102F5000FFF77CFA821B904504D321680F6878063E
:102F6000F6D597E7226802F10C0656E8008F28F4A0
:102F7000D07902F10C0E4EE80093002BF3D102F150
:102F8000140C5CE8000F20F0010502F1140747E87B
:102F900000510029F3D1C2E7DFF834D00D480E49C3
:102FA0000E4A002302E0D458C4500433C4188C42A3
:102FB000F9D30B4A0B4C002301E013600432A24208
:102FC000FBD3FFF7EBF9FDF735F9FFF70FF8704783
:102FD00000000120000000207000002008320008DE
:102FE00070000020EC000020FEE70000F8B500BFF4
:102FF000F8BC08BC9E467047F8B500BFF8BC08BCDA
:043000009E46704731
:103004000400002000000000000000000000000098
:1030140000000000000000000000000000000000AC
:10302400000000000000000000000000000000009C
:10303400000000000000000000000000000000008C
:10304400000000000000000000000000000000007C
:10305400000000000000000000000000000000006C
:10306400000000006D61696E000000000D0A0D0A89
:103074001B5B313B33346D524554524F4249544CDF
:1030840041422053544D3332205553422044465537
:1030940020424F4F544C4F414445521B5B306D0D01
:1030A400000000001B5B313B33336D0076302E345F
:1030B400204255494C443A2031373A33343A303679
:1030C4002D4E6F7620313220323032350000000030
:1030D40046575645523A2025730000001B5B306D5D
:1030E4000D0000001B5B33326D000000436F7265FE
:1030F4002F5372632F6D61696E2E6300257320490F
:103104004E464F20282573293A204E46550D0A0075
:103114001B5B306D000000001B5B33316D00000051
:103124002573204552524F5220282573293A204EA8
:103134006F742076616C6964206170706C6963617E
:1031440074696F6E20666F756E642E204669726DA9
:1031540077617265205570677261646520464F52CD
:103164004345442E0D0A0000257320494E464F2046
:10317400282573293A205374617274696E67205349
:10318400544D33322044465520424F4F544C4F4106
:10319400444552204D6F64652E2E2E0D0A0000000A
:1031A40000000000000000000102030406070809F3
:1031B4000000000001020304232D302B2000000036
:1031C400686C4C0065666745464700003031323311
:1031D400343536373839414243444546000000000F
:1031E4003031323334353637383961626364656679
:0431F40000000000D7
:0831F80078EAFF7F01000000EE
:0432000009020008B7
:04320400E1010008DC
:1032080004000020000000004830000828300008B2
:103218000830000800000000000000000000000066
:103228000000000000000000000000000000000096
:103238000000000000000000000000000000000086
:103248000000000000000000000000000000000076
:103258000000000000000000000000000000000066
:10326800000000000024F40001000000100000002D
:0400000508002F9927
:00000001FF
